{
  "_format": "hh-sol-artifact-1",
  "contractName": "MusicNFTMarketplace",
  "sourceName": "src/backend/contracts/MusicNFTMarketplace.sol",
  "abi": [
    {
      "anonymous": false,
      "inputs": [
        {
          "indexed": true,
          "internalType": "address",
          "name": "owner",
          "type": "address"
        },
        {
          "indexed": true,
          "internalType": "address",
          "name": "approved",
          "type": "address"
        },
        {
          "indexed": true,
          "internalType": "uint256",
          "name": "tokenId",
          "type": "uint256"
        }
      ],
      "name": "Approval",
      "type": "event"
    },
    {
      "anonymous": false,
      "inputs": [
        {
          "indexed": true,
          "internalType": "address",
          "name": "owner",
          "type": "address"
        },
        {
          "indexed": true,
          "internalType": "address",
          "name": "operator",
          "type": "address"
        },
        {
          "indexed": false,
          "internalType": "bool",
          "name": "approved",
          "type": "bool"
        }
      ],
      "name": "ApprovalForAll",
      "type": "event"
    },
    {
      "anonymous": false,
      "inputs": [
        {
          "indexed": true,
          "internalType": "address",
          "name": "previousOwner",
          "type": "address"
        },
        {
          "indexed": true,
          "internalType": "address",
          "name": "newOwner",
          "type": "address"
        }
      ],
      "name": "OwnershipTransferred",
      "type": "event"
    },
    {
      "anonymous": false,
      "inputs": [
        {
          "indexed": true,
          "internalType": "address",
          "name": "from",
          "type": "address"
        },
        {
          "indexed": true,
          "internalType": "address",
          "name": "to",
          "type": "address"
        },
        {
          "indexed": true,
          "internalType": "uint256",
          "name": "tokenId",
          "type": "uint256"
        }
      ],
      "name": "Transfer",
      "type": "event"
    },
    {
      "inputs": [
        {
          "internalType": "address",
          "name": "to",
          "type": "address"
        },
        {
          "internalType": "uint256",
          "name": "tokenId",
          "type": "uint256"
        }
      ],
      "name": "approve",
      "outputs": [],
      "stateMutability": "nonpayable",
      "type": "function"
    },
    {
      "inputs": [
        {
          "internalType": "address",
          "name": "owner",
          "type": "address"
        }
      ],
      "name": "balanceOf",
      "outputs": [
        {
          "internalType": "uint256",
          "name": "",
          "type": "uint256"
        }
      ],
      "stateMutability": "view",
      "type": "function"
    },
    {
      "inputs": [],
      "name": "baseExtension",
      "outputs": [
        {
          "internalType": "string",
          "name": "",
          "type": "string"
        }
      ],
      "stateMutability": "view",
      "type": "function"
    },
    {
      "inputs": [],
      "name": "baseURI",
      "outputs": [
        {
          "internalType": "string",
          "name": "",
          "type": "string"
        }
      ],
      "stateMutability": "view",
      "type": "function"
    },
    {
      "inputs": [
        {
          "internalType": "uint256",
          "name": "tokenId",
          "type": "uint256"
        }
      ],
      "name": "getApproved",
      "outputs": [
        {
          "internalType": "address",
          "name": "",
          "type": "address"
        }
      ],
      "stateMutability": "view",
      "type": "function"
    },
    {
      "inputs": [
        {
          "internalType": "address",
          "name": "owner",
          "type": "address"
        },
        {
          "internalType": "address",
          "name": "operator",
          "type": "address"
        }
      ],
      "name": "isApprovedForAll",
      "outputs": [
        {
          "internalType": "bool",
          "name": "",
          "type": "bool"
        }
      ],
      "stateMutability": "view",
      "type": "function"
    },
    {
      "inputs": [],
      "name": "name",
      "outputs": [
        {
          "internalType": "string",
          "name": "",
          "type": "string"
        }
      ],
      "stateMutability": "view",
      "type": "function"
    },
    {
      "inputs": [],
      "name": "owner",
      "outputs": [
        {
          "internalType": "address",
          "name": "",
          "type": "address"
        }
      ],
      "stateMutability": "view",
      "type": "function"
    },
    {
      "inputs": [
        {
          "internalType": "uint256",
          "name": "tokenId",
          "type": "uint256"
        }
      ],
      "name": "ownerOf",
      "outputs": [
        {
          "internalType": "address",
          "name": "",
          "type": "address"
        }
      ],
      "stateMutability": "view",
      "type": "function"
    },
    {
      "inputs": [],
      "name": "renounceOwnership",
      "outputs": [],
      "stateMutability": "nonpayable",
      "type": "function"
    },
    {
      "inputs": [
        {
          "internalType": "address",
          "name": "from",
          "type": "address"
        },
        {
          "internalType": "address",
          "name": "to",
          "type": "address"
        },
        {
          "internalType": "uint256",
          "name": "tokenId",
          "type": "uint256"
        }
      ],
      "name": "safeTransferFrom",
      "outputs": [],
      "stateMutability": "nonpayable",
      "type": "function"
    },
    {
      "inputs": [
        {
          "internalType": "address",
          "name": "from",
          "type": "address"
        },
        {
          "internalType": "address",
          "name": "to",
          "type": "address"
        },
        {
          "internalType": "uint256",
          "name": "tokenId",
          "type": "uint256"
        },
        {
          "internalType": "bytes",
          "name": "_data",
          "type": "bytes"
        }
      ],
      "name": "safeTransferFrom",
      "outputs": [],
      "stateMutability": "nonpayable",
      "type": "function"
    },
    {
      "inputs": [
        {
          "internalType": "address",
          "name": "operator",
          "type": "address"
        },
        {
          "internalType": "bool",
          "name": "approved",
          "type": "bool"
        }
      ],
      "name": "setApprovalForAll",
      "outputs": [],
      "stateMutability": "nonpayable",
      "type": "function"
    },
    {
      "inputs": [
        {
          "internalType": "bytes4",
          "name": "interfaceId",
          "type": "bytes4"
        }
      ],
      "name": "supportsInterface",
      "outputs": [
        {
          "internalType": "bool",
          "name": "",
          "type": "bool"
        }
      ],
      "stateMutability": "view",
      "type": "function"
    },
    {
      "inputs": [],
      "name": "symbol",
      "outputs": [
        {
          "internalType": "string",
          "name": "",
          "type": "string"
        }
      ],
      "stateMutability": "view",
      "type": "function"
    },
    {
      "inputs": [
        {
          "internalType": "uint256",
          "name": "tokenId",
          "type": "uint256"
        }
      ],
      "name": "tokenURI",
      "outputs": [
        {
          "internalType": "string",
          "name": "",
          "type": "string"
        }
      ],
      "stateMutability": "view",
      "type": "function"
    },
    {
      "inputs": [
        {
          "internalType": "address",
          "name": "from",
          "type": "address"
        },
        {
          "internalType": "address",
          "name": "to",
          "type": "address"
        },
        {
          "internalType": "uint256",
          "name": "tokenId",
          "type": "uint256"
        }
      ],
      "name": "transferFrom",
      "outputs": [],
      "stateMutability": "nonpayable",
      "type": "function"
    },
    {
      "inputs": [
        {
          "internalType": "address",
          "name": "newOwner",
          "type": "address"
        }
      ],
      "name": "transferOwnership",
      "outputs": [],
      "stateMutability": "nonpayable",
      "type": "function"
    }
  ],
  "bytecode": "0x608060405260405180608001604052806059815260200162002c6360599139600790805190602001906200003592919062000226565b506040518060400160405280600581526020017f2e6a736f6e000000000000000000000000000000000000000000000000000000815250600890805190602001906200008392919062000226565b503480156200009157600080fd5b506040518060400160405280600481526020017f52794669000000000000000000000000000000000000000000000000000000008152506040518060400160405280600281526020017f525a00000000000000000000000000000000000000000000000000000000000081525081600090805190602001906200011692919062000226565b5080600190805190602001906200012f92919062000226565b50505062000152620001466200015860201b60201c565b6200016060201b60201c565b6200033b565b600033905090565b6000600660009054906101000a900473ffffffffffffffffffffffffffffffffffffffff16905081600660006101000a81548173ffffffffffffffffffffffffffffffffffffffff021916908373ffffffffffffffffffffffffffffffffffffffff1602179055508173ffffffffffffffffffffffffffffffffffffffff168173ffffffffffffffffffffffffffffffffffffffff167f8be0079c531659141344cd1fd0a4f28419497f9722a3daafe3b4186f6b6457e060405160405180910390a35050565b8280546200023490620002d6565b90600052602060002090601f016020900481019282620002585760008555620002a4565b82601f106200027357805160ff1916838001178555620002a4565b82800160010185558215620002a4579182015b82811115620002a357825182559160200191906001019062000286565b5b509050620002b39190620002b7565b5090565b5b80821115620002d2576000816000905550600101620002b8565b5090565b60006002820490506001821680620002ef57607f821691505b602082108114156200030657620003056200030c565b5b50919050565b7f4e487b7100000000000000000000000000000000000000000000000000000000600052602260045260246000fd5b612918806200034b6000396000f3fe608060405234801561001057600080fd5b50600436106101165760003560e01c8063715018a6116100a2578063b88d4fde11610071578063b88d4fde146102cd578063c6682862146102e9578063c87b56dd14610307578063e985e9c514610337578063f2fde38b1461036757610116565b8063715018a61461026b5780638da5cb5b1461027557806395d89b4114610293578063a22cb465146102b157610116565b806323b872dd116100e957806323b872dd146101b557806342842e0e146101d15780636352211e146101ed5780636c0360eb1461021d57806370a082311461023b57610116565b806301ffc9a71461011b57806306fdde031461014b578063081812fc14610169578063095ea7b314610199575b600080fd5b61013560048036038101906101309190611af4565b610383565b6040516101429190611eb4565b60405180910390f35b610153610465565b6040516101609190611ecf565b60405180910390f35b610183600480360381019061017e9190611b46565b6104f7565b6040516101909190611e4d565b60405180910390f35b6101b360048036038101906101ae9190611ab8565b61057c565b005b6101cf60048036038101906101ca91906119b2565b610694565b005b6101eb60048036038101906101e691906119b2565b6106f4565b005b61020760048036038101906102029190611b46565b610714565b6040516102149190611e4d565b60405180910390f35b6102256107c6565b6040516102329190611ecf565b60405180910390f35b6102556004803603810190610250919061194d565b610854565b60405161026291906120b1565b60405180910390f35b61027361090c565b005b61027d610994565b60405161028a9190611e4d565b60405180910390f35b61029b6109be565b6040516102a89190611ecf565b60405180910390f35b6102cb60048036038101906102c69190611a7c565b610a50565b005b6102e760048036038101906102e29190611a01565b610a66565b005b6102f1610ac8565b6040516102fe9190611ecf565b60405180910390f35b610321600480360381019061031c9190611b46565b610b56565b60405161032e9190611ecf565b60405180910390f35b610351600480360381019061034c9190611976565b610bfd565b60405161035e9190611eb4565b60405180910390f35b610381600480360381019061037c919061194d565b610c91565b005b60007f80ac58cd000000000000000000000000000000000000000000000000000000007bffffffffffffffffffffffffffffffffffffffffffffffffffffffff1916827bffffffffffffffffffffffffffffffffffffffffffffffffffffffff1916148061044e57507f5b5e139f000000000000000000000000000000000000000000000000000000007bffffffffffffffffffffffffffffffffffffffffffffffffffffffff1916827bffffffffffffffffffffffffffffffffffffffffffffffffffffffff1916145b8061045e575061045d82610d89565b5b9050919050565b606060008054610474906122d6565b80601f01602080910402602001604051908101604052809291908181526020018280546104a0906122d6565b80156104ed5780601f106104c2576101008083540402835291602001916104ed565b820191906000526020600020905b8154815290600101906020018083116104d057829003601f168201915b5050505050905090565b600061050282610df3565b610541576040517f08c379a000000000000000000000000000000000000000000000000000000000815260040161053890612011565b60405180910390fd5b6004600083815260200190815260200160002060009054906101000a900473ffffffffffffffffffffffffffffffffffffffff169050919050565b600061058782610714565b90508073ffffffffffffffffffffffffffffffffffffffff168373ffffffffffffffffffffffffffffffffffffffff1614156105f8576040517f08c379a00000000000000000000000000000000000000000000000000000000081526004016105ef90612071565b60405180910390fd5b8073ffffffffffffffffffffffffffffffffffffffff16610617610e5f565b73ffffffffffffffffffffffffffffffffffffffff161480610646575061064581610640610e5f565b610bfd565b5b610685576040517f08c379a000000000000000000000000000000000000000000000000000000000815260040161067c90611fb1565b60405180910390fd5b61068f8383610e67565b505050565b6106a561069f610e5f565b82610f20565b6106e4576040517f08c379a00000000000000000000000000000000000000000000000000000000081526004016106db90612091565b60405180910390fd5b6106ef838383610ffe565b505050565b61070f83838360405180602001604052806000815250610a66565b505050565b6000806002600084815260200190815260200160002060009054906101000a900473ffffffffffffffffffffffffffffffffffffffff169050600073ffffffffffffffffffffffffffffffffffffffff168173ffffffffffffffffffffffffffffffffffffffff1614156107bd576040517f08c379a00000000000000000000000000000000000000000000000000000000081526004016107b490611ff1565b60405180910390fd5b80915050919050565b600780546107d3906122d6565b80601f01602080910402602001604051908101604052809291908181526020018280546107ff906122d6565b801561084c5780601f106108215761010080835404028352916020019161084c565b820191906000526020600020905b81548152906001019060200180831161082f57829003601f168201915b505050505081565b60008073ffffffffffffffffffffffffffffffffffffffff168273ffffffffffffffffffffffffffffffffffffffff1614156108c5576040517f08c379a00000000000000000000000000000000000000000000000000000000081526004016108bc90611fd1565b60405180910390fd5b600360008373ffffffffffffffffffffffffffffffffffffffff1673ffffffffffffffffffffffffffffffffffffffff168152602001908152602001600020549050919050565b610914610e5f565b73ffffffffffffffffffffffffffffffffffffffff16610932610994565b73ffffffffffffffffffffffffffffffffffffffff1614610988576040517f08c379a000000000000000000000000000000000000000000000000000000000815260040161097f90612031565b60405180910390fd5b6109926000611265565b565b6000600660009054906101000a900473ffffffffffffffffffffffffffffffffffffffff16905090565b6060600180546109cd906122d6565b80601f01602080910402602001604051908101604052809291908181526020018280546109f9906122d6565b8015610a465780601f10610a1b57610100808354040283529160200191610a46565b820191906000526020600020905b815481529060010190602001808311610a2957829003601f168201915b5050505050905090565b610a62610a5b610e5f565b838361132b565b5050565b610a77610a71610e5f565b83610f20565b610ab6576040517f08c379a0000000000000000000000000000000000000000000000000000000008152600401610aad90612091565b60405180910390fd5b610ac284848484611498565b50505050565b60088054610ad5906122d6565b80601f0160208091040260200160405190810160405280929190818152602001828054610b01906122d6565b8015610b4e5780601f10610b2357610100808354040283529160200191610b4e565b820191906000526020600020905b815481529060010190602001808311610b3157829003601f168201915b505050505081565b6060610b6182610df3565b610ba0576040517f08c379a0000000000000000000000000000000000000000000000000000000008152600401610b9790612051565b60405180910390fd5b6000610baa6114f4565b90506000815111610bca5760405180602001604052806000815250610bf5565b80610bd48461150b565b604051602001610be5929190611e29565b6040516020818303038152906040525b915050919050565b6000600560008473ffffffffffffffffffffffffffffffffffffffff1673ffffffffffffffffffffffffffffffffffffffff16815260200190815260200160002060008373ffffffffffffffffffffffffffffffffffffffff1673ffffffffffffffffffffffffffffffffffffffff16815260200190815260200160002060009054906101000a900460ff16905092915050565b610c99610e5f565b73ffffffffffffffffffffffffffffffffffffffff16610cb7610994565b73ffffffffffffffffffffffffffffffffffffffff1614610d0d576040517f08c379a0000000000000000000000000000000000000000000000000000000008152600401610d0490612031565b60405180910390fd5b600073ffffffffffffffffffffffffffffffffffffffff168173ffffffffffffffffffffffffffffffffffffffff161415610d7d576040517f08c379a0000000000000000000000000000000000000000000000000000000008152600401610d7490611f11565b60405180910390fd5b610d8681611265565b50565b60007f01ffc9a7000000000000000000000000000000000000000000000000000000007bffffffffffffffffffffffffffffffffffffffffffffffffffffffff1916827bffffffffffffffffffffffffffffffffffffffffffffffffffffffff1916149050919050565b60008073ffffffffffffffffffffffffffffffffffffffff166002600084815260200190815260200160002060009054906101000a900473ffffffffffffffffffffffffffffffffffffffff1673ffffffffffffffffffffffffffffffffffffffff1614159050919050565b600033905090565b816004600083815260200190815260200160002060006101000a81548173ffffffffffffffffffffffffffffffffffffffff021916908373ffffffffffffffffffffffffffffffffffffffff160217905550808273ffffffffffffffffffffffffffffffffffffffff16610eda83610714565b73ffffffffffffffffffffffffffffffffffffffff167f8c5be1e5ebec7d5bd14f71427d1e84f3dd0314c0f7b2291e5b200ac8c7c3b92560405160405180910390a45050565b6000610f2b82610df3565b610f6a576040517f08c379a0000000000000000000000000000000000000000000000000000000008152600401610f6190611f91565b60405180910390fd5b6000610f7583610714565b90508073ffffffffffffffffffffffffffffffffffffffff168473ffffffffffffffffffffffffffffffffffffffff161480610fe457508373ffffffffffffffffffffffffffffffffffffffff16610fcc846104f7565b73ffffffffffffffffffffffffffffffffffffffff16145b80610ff55750610ff48185610bfd565b5b91505092915050565b8273ffffffffffffffffffffffffffffffffffffffff1661101e82610714565b73ffffffffffffffffffffffffffffffffffffffff1614611074576040517f08c379a000000000000000000000000000000000000000000000000000000000815260040161106b90611f31565b60405180910390fd5b600073ffffffffffffffffffffffffffffffffffffffff168273ffffffffffffffffffffffffffffffffffffffff1614156110e4576040517f08c379a00000000000000000000000000000000000000000000000000000000081526004016110db90611f51565b60405180910390fd5b6110ef8383836116b8565b6110fa600082610e67565b6001600360008573ffffffffffffffffffffffffffffffffffffffff1673ffffffffffffffffffffffffffffffffffffffff168152602001908152602001600020600082825461114a91906121ec565b925050819055506001600360008473ffffffffffffffffffffffffffffffffffffffff1673ffffffffffffffffffffffffffffffffffffffff16815260200190815260200160002060008282546111a19190612165565b92505081905550816002600083815260200190815260200160002060006101000a81548173ffffffffffffffffffffffffffffffffffffffff021916908373ffffffffffffffffffffffffffffffffffffffff160217905550808273ffffffffffffffffffffffffffffffffffffffff168473ffffffffffffffffffffffffffffffffffffffff167fddf252ad1be2c89b69c2b068fc378daa952ba7f163c4a11628f55a4df523b3ef60405160405180910390a46112608383836116bd565b505050565b6000600660009054906101000a900473ffffffffffffffffffffffffffffffffffffffff16905081600660006101000a81548173ffffffffffffffffffffffffffffffffffffffff021916908373ffffffffffffffffffffffffffffffffffffffff1602179055508173ffffffffffffffffffffffffffffffffffffffff168173ffffffffffffffffffffffffffffffffffffffff167f8be0079c531659141344cd1fd0a4f28419497f9722a3daafe3b4186f6b6457e060405160405180910390a35050565b8173ffffffffffffffffffffffffffffffffffffffff168373ffffffffffffffffffffffffffffffffffffffff16141561139a576040517f08c379a000000000000000000000000000000000000000000000000000000000815260040161139190611f71565b60405180910390fd5b80600560008573ffffffffffffffffffffffffffffffffffffffff1673ffffffffffffffffffffffffffffffffffffffff16815260200190815260200160002060008473ffffffffffffffffffffffffffffffffffffffff1673ffffffffffffffffffffffffffffffffffffffff16815260200190815260200160002060006101000a81548160ff0219169083151502179055508173ffffffffffffffffffffffffffffffffffffffff168373ffffffffffffffffffffffffffffffffffffffff167f17307eab39ab6107e8899845ad3d59bd9653f200f220920489ca2b5937696c318360405161148b9190611eb4565b60405180910390a3505050565b6114a3848484610ffe565b6114af848484846116c2565b6114ee576040517f08c379a00000000000000000000000000000000000000000000000000000000081526004016114e590611ef1565b60405180910390fd5b50505050565b606060405180602001604052806000815250905090565b60606000821415611553576040518060400160405280600181526020017f300000000000000000000000000000000000000000000000000000000000000081525090506116b3565b600082905060005b6000821461158557808061156e90612339565b915050600a8261157e91906121bb565b915061155b565b60008167ffffffffffffffff8111156115c7577f4e487b7100000000000000000000000000000000000000000000000000000000600052604160045260246000fd5b6040519080825280601f01601f1916602001820160405280156115f95781602001600182028036833780820191505090505b5090505b600085146116ac5760018261161291906121ec565b9150600a856116219190612382565b603061162d9190612165565b60f81b818381518110611669577f4e487b7100000000000000000000000000000000000000000000000000000000600052603260045260246000fd5b60200101907effffffffffffffffffffffffffffffffffffffffffffffffffffffffffffff1916908160001a905350600a856116a591906121bb565b94506115fd565b8093505050505b919050565b505050565b505050565b60006116e38473ffffffffffffffffffffffffffffffffffffffff16611859565b1561184c578373ffffffffffffffffffffffffffffffffffffffff1663150b7a0261170c610e5f565b8786866040518563ffffffff1660e01b815260040161172e9493929190611e68565b602060405180830381600087803b15801561174857600080fd5b505af192505050801561177957506040513d601f19601f820116820180604052508101906117769190611b1d565b60015b6117fc573d80600081146117a9576040519150601f19603f3d011682016040523d82523d6000602084013e6117ae565b606091505b506000815114156117f4576040517f08c379a00000000000000000000000000000000000000000000000000000000081526004016117eb90611ef1565b60405180910390fd5b805181602001fd5b63150b7a0260e01b7bffffffffffffffffffffffffffffffffffffffffffffffffffffffff1916817bffffffffffffffffffffffffffffffffffffffffffffffffffffffff191614915050611851565b600190505b949350505050565b6000808273ffffffffffffffffffffffffffffffffffffffff163b119050919050565b600061188f61188a846120f1565b6120cc565b9050828152602081018484840111156118a757600080fd5b6118b2848285612294565b509392505050565b6000813590506118c981612886565b92915050565b6000813590506118de8161289d565b92915050565b6000813590506118f3816128b4565b92915050565b600081519050611908816128b4565b92915050565b600082601f83011261191f57600080fd5b813561192f84826020860161187c565b91505092915050565b600081359050611947816128cb565b92915050565b60006020828403121561195f57600080fd5b600061196d848285016118ba565b91505092915050565b6000806040838503121561198957600080fd5b6000611997858286016118ba565b92505060206119a8858286016118ba565b9150509250929050565b6000806000606084860312156119c757600080fd5b60006119d5868287016118ba565b93505060206119e6868287016118ba565b92505060406119f786828701611938565b9150509250925092565b60008060008060808587031215611a1757600080fd5b6000611a25878288016118ba565b9450506020611a36878288016118ba565b9350506040611a4787828801611938565b925050606085013567ffffffffffffffff811115611a6457600080fd5b611a708782880161190e565b91505092959194509250565b60008060408385031215611a8f57600080fd5b6000611a9d858286016118ba565b9250506020611aae858286016118cf565b9150509250929050565b60008060408385031215611acb57600080fd5b6000611ad9858286016118ba565b9250506020611aea85828601611938565b9150509250929050565b600060208284031215611b0657600080fd5b6000611b14848285016118e4565b91505092915050565b600060208284031215611b2f57600080fd5b6000611b3d848285016118f9565b91505092915050565b600060208284031215611b5857600080fd5b6000611b6684828501611938565b91505092915050565b611b7881612220565b82525050565b611b8781612232565b82525050565b6000611b9882612122565b611ba28185612138565b9350611bb28185602086016122a3565b611bbb8161246f565b840191505092915050565b6000611bd18261212d565b611bdb8185612149565b9350611beb8185602086016122a3565b611bf48161246f565b840191505092915050565b6000611c0a8261212d565b611c14818561215a565b9350611c248185602086016122a3565b80840191505092915050565b6000611c3d603283612149565b9150611c4882612480565b604082019050919050565b6000611c60602683612149565b9150611c6b826124cf565b604082019050919050565b6000611c83602583612149565b9150611c8e8261251e565b604082019050919050565b6000611ca6602483612149565b9150611cb18261256d565b604082019050919050565b6000611cc9601983612149565b9150611cd4826125bc565b602082019050919050565b6000611cec602c83612149565b9150611cf7826125e5565b604082019050919050565b6000611d0f603883612149565b9150611d1a82612634565b604082019050919050565b6000611d32602a83612149565b9150611d3d82612683565b604082019050919050565b6000611d55602983612149565b9150611d60826126d2565b604082019050919050565b6000611d78602c83612149565b9150611d8382612721565b604082019050919050565b6000611d9b602083612149565b9150611da682612770565b602082019050919050565b6000611dbe602f83612149565b9150611dc982612799565b604082019050919050565b6000611de1602183612149565b9150611dec826127e8565b604082019050919050565b6000611e04603183612149565b9150611e0f82612837565b604082019050919050565b611e238161228a565b82525050565b6000611e358285611bff565b9150611e418284611bff565b91508190509392505050565b6000602082019050611e626000830184611b6f565b92915050565b6000608082019050611e7d6000830187611b6f565b611e8a6020830186611b6f565b611e976040830185611e1a565b8181036060830152611ea98184611b8d565b905095945050505050565b6000602082019050611ec96000830184611b7e565b92915050565b60006020820190508181036000830152611ee98184611bc6565b905092915050565b60006020820190508181036000830152611f0a81611c30565b9050919050565b60006020820190508181036000830152611f2a81611c53565b9050919050565b60006020820190508181036000830152611f4a81611c76565b9050919050565b60006020820190508181036000830152611f6a81611c99565b9050919050565b60006020820190508181036000830152611f8a81611cbc565b9050919050565b60006020820190508181036000830152611faa81611cdf565b9050919050565b60006020820190508181036000830152611fca81611d02565b9050919050565b60006020820190508181036000830152611fea81611d25565b9050919050565b6000602082019050818103600083015261200a81611d48565b9050919050565b6000602082019050818103600083015261202a81611d6b565b9050919050565b6000602082019050818103600083015261204a81611d8e565b9050919050565b6000602082019050818103600083015261206a81611db1565b9050919050565b6000602082019050818103600083015261208a81611dd4565b9050919050565b600060208201905081810360008301526120aa81611df7565b9050919050565b60006020820190506120c66000830184611e1a565b92915050565b60006120d66120e7565b90506120e28282612308565b919050565b6000604051905090565b600067ffffffffffffffff82111561210c5761210b612440565b5b6121158261246f565b9050602081019050919050565b600081519050919050565b600081519050919050565b600082825260208201905092915050565b600082825260208201905092915050565b600081905092915050565b60006121708261228a565b915061217b8361228a565b9250827fffffffffffffffffffffffffffffffffffffffffffffffffffffffffffffffff038211156121b0576121af6123b3565b5b828201905092915050565b60006121c68261228a565b91506121d18361228a565b9250826121e1576121e06123e2565b5b828204905092915050565b60006121f78261228a565b91506122028361228a565b925082821015612215576122146123b3565b5b828203905092915050565b600061222b8261226a565b9050919050565b60008115159050919050565b60007fffffffff0000000000000000000000000000000000000000000000000000000082169050919050565b600073ffffffffffffffffffffffffffffffffffffffff82169050919050565b6000819050919050565b82818337600083830152505050565b60005b838110156122c15780820151818401526020810190506122a6565b838111156122d0576000848401525b50505050565b600060028204905060018216806122ee57607f821691505b6020821081141561230257612301612411565b5b50919050565b6123118261246f565b810181811067ffffffffffffffff821117156123305761232f612440565b5b80604052505050565b60006123448261228a565b91507fffffffffffffffffffffffffffffffffffffffffffffffffffffffffffffffff821415612377576123766123b3565b5b600182019050919050565b600061238d8261228a565b91506123988361228a565b9250826123a8576123a76123e2565b5b828206905092915050565b7f4e487b7100000000000000000000000000000000000000000000000000000000600052601160045260246000fd5b7f4e487b7100000000000000000000000000000000000000000000000000000000600052601260045260246000fd5b7f4e487b7100000000000000000000000000000000000000000000000000000000600052602260045260246000fd5b7f4e487b7100000000000000000000000000000000000000000000000000000000600052604160045260246000fd5b6000601f19601f8301169050919050565b7f4552433732313a207472616e7366657220746f206e6f6e20455243373231526560008201527f63656976657220696d706c656d656e7465720000000000000000000000000000602082015250565b7f4f776e61626c653a206e6577206f776e657220697320746865207a65726f206160008201527f6464726573730000000000000000000000000000000000000000000000000000602082015250565b7f4552433732313a207472616e736665722066726f6d20696e636f72726563742060008201527f6f776e6572000000000000000000000000000000000000000000000000000000602082015250565b7f4552433732313a207472616e7366657220746f20746865207a65726f2061646460008201527f7265737300000000000000000000000000000000000000000000000000000000602082015250565b7f4552433732313a20617070726f766520746f2063616c6c657200000000000000600082015250565b7f4552433732313a206f70657261746f7220717565727920666f72206e6f6e657860008201527f697374656e7420746f6b656e0000000000000000000000000000000000000000602082015250565b7f4552433732313a20617070726f76652063616c6c6572206973206e6f74206f7760008201527f6e6572206e6f7220617070726f76656420666f7220616c6c0000000000000000602082015250565b7f4552433732313a2062616c616e636520717565727920666f7220746865207a6560008201527f726f206164647265737300000000000000000000000000000000000000000000602082015250565b7f4552433732313a206f776e657220717565727920666f72206e6f6e657869737460008201527f656e7420746f6b656e0000000000000000000000000000000000000000000000602082015250565b7f4552433732313a20617070726f76656420717565727920666f72206e6f6e657860008201527f697374656e7420746f6b656e0000000000000000000000000000000000000000602082015250565b7f4f776e61626c653a2063616c6c6572206973206e6f7420746865206f776e6572600082015250565b7f4552433732314d657461646174613a2055524920717565727920666f72206e6f60008201527f6e6578697374656e7420746f6b656e0000000000000000000000000000000000602082015250565b7f4552433732313a20617070726f76616c20746f2063757272656e74206f776e6560008201527f7200000000000000000000000000000000000000000000000000000000000000602082015250565b7f4552433732313a207472616e736665722063616c6c6572206973206e6f74206f60008201527f776e6572206e6f7220617070726f766564000000000000000000000000000000602082015250565b61288f81612220565b811461289a57600080fd5b50565b6128a681612232565b81146128b157600080fd5b50565b6128bd8161223e565b81146128c857600080fd5b50565b6128d48161228a565b81146128df57600080fd5b5056fea26469706673582212203d3fa832bae77659b61260884d606e9353ab2c01b9c535f2769fbfda785aa3aa64736f6c6343000804003368747470733a2f2f6261667962656964686a6a626a6f6e7971636168757a6c707437737a6e6d683478726c62737061336773746f70356f34376c3667736961666665652e697066732e6e667473746f726167652e6c696e6b2f",
  "linkReferences": {},
  "deployedLinkReferences": {}
}